{
  "_format": "hh-sol-artifact-1",
  "contractName": "SSunNFT",
  "sourceName": "contracts/SudakSunsetNFT.sol",
  "abi": [
    {
      "inputs": [],
      "stateMutability": "nonpayable",
      "type": "constructor"
    },
    {
      "anonymous": false,
      "inputs": [
        {
          "indexed": true,
          "internalType": "address",
          "name": "owner",
          "type": "address"
        },
        {
          "indexed": true,
          "internalType": "address",
          "name": "approved",
          "type": "address"
        },
        {
          "indexed": true,
          "internalType": "uint256",
          "name": "tokenId",
          "type": "uint256"
        }
      ],
      "name": "Approval",
      "type": "event"
    },
    {
      "anonymous": false,
      "inputs": [
        {
          "indexed": true,
          "internalType": "address",
          "name": "owner",
          "type": "address"
        },
        {
          "indexed": true,
          "internalType": "address",
          "name": "operator",
          "type": "address"
        },
        {
          "indexed": false,
          "internalType": "bool",
          "name": "approved",
          "type": "bool"
        }
      ],
      "name": "ApprovalForAll",
      "type": "event"
    },
    {
      "anonymous": false,
      "inputs": [
        {
          "indexed": true,
          "internalType": "address",
          "name": "previousOwner",
          "type": "address"
        },
        {
          "indexed": true,
          "internalType": "address",
          "name": "newOwner",
          "type": "address"
        }
      ],
      "name": "OwnershipTransferred",
      "type": "event"
    },
    {
      "anonymous": false,
      "inputs": [
        {
          "indexed": true,
          "internalType": "address",
          "name": "from",
          "type": "address"
        },
        {
          "indexed": true,
          "internalType": "address",
          "name": "to",
          "type": "address"
        },
        {
          "indexed": true,
          "internalType": "uint256",
          "name": "tokenId",
          "type": "uint256"
        }
      ],
      "name": "Transfer",
      "type": "event"
    },
    {
      "inputs": [
        {
          "internalType": "address",
          "name": "to",
          "type": "address"
        },
        {
          "internalType": "uint256",
          "name": "tokenId",
          "type": "uint256"
        }
      ],
      "name": "approve",
      "outputs": [],
      "stateMutability": "nonpayable",
      "type": "function"
    },
    {
      "inputs": [
        {
          "internalType": "address",
          "name": "owner",
          "type": "address"
        }
      ],
      "name": "balanceOf",
      "outputs": [
        {
          "internalType": "uint256",
          "name": "",
          "type": "uint256"
        }
      ],
      "stateMutability": "view",
      "type": "function"
    },
    {
      "inputs": [
        {
          "internalType": "address",
          "name": "receiver",
          "type": "address"
        },
        {
          "internalType": "string",
          "name": "tokenURIString",
          "type": "string"
        }
      ],
      "name": "createNFT",
      "outputs": [
        {
          "internalType": "uint256",
          "name": "",
          "type": "uint256"
        }
      ],
      "stateMutability": "nonpayable",
      "type": "function"
    },
    {
      "inputs": [
        {
          "internalType": "uint256",
          "name": "tokenId",
          "type": "uint256"
        }
      ],
      "name": "getApproved",
      "outputs": [
        {
          "internalType": "address",
          "name": "",
          "type": "address"
        }
      ],
      "stateMutability": "view",
      "type": "function"
    },
    {
      "inputs": [
        {
          "internalType": "address",
          "name": "owner",
          "type": "address"
        },
        {
          "internalType": "address",
          "name": "operator",
          "type": "address"
        }
      ],
      "name": "isApprovedForAll",
      "outputs": [
        {
          "internalType": "bool",
          "name": "",
          "type": "bool"
        }
      ],
      "stateMutability": "view",
      "type": "function"
    },
    {
      "inputs": [],
      "name": "name",
      "outputs": [
        {
          "internalType": "string",
          "name": "",
          "type": "string"
        }
      ],
      "stateMutability": "view",
      "type": "function"
    },
    {
      "inputs": [],
      "name": "owner",
      "outputs": [
        {
          "internalType": "address",
          "name": "",
          "type": "address"
        }
      ],
      "stateMutability": "view",
      "type": "function"
    },
    {
      "inputs": [
        {
          "internalType": "uint256",
          "name": "tokenId",
          "type": "uint256"
        }
      ],
      "name": "ownerOf",
      "outputs": [
        {
          "internalType": "address",
          "name": "",
          "type": "address"
        }
      ],
      "stateMutability": "view",
      "type": "function"
    },
    {
      "inputs": [],
      "name": "renounceOwnership",
      "outputs": [],
      "stateMutability": "nonpayable",
      "type": "function"
    },
    {
      "inputs": [
        {
          "internalType": "address",
          "name": "from",
          "type": "address"
        },
        {
          "internalType": "address",
          "name": "to",
          "type": "address"
        },
        {
          "internalType": "uint256",
          "name": "tokenId",
          "type": "uint256"
        }
      ],
      "name": "safeTransferFrom",
      "outputs": [],
      "stateMutability": "nonpayable",
      "type": "function"
    },
    {
      "inputs": [
        {
          "internalType": "address",
          "name": "from",
          "type": "address"
        },
        {
          "internalType": "address",
          "name": "to",
          "type": "address"
        },
        {
          "internalType": "uint256",
          "name": "tokenId",
          "type": "uint256"
        },
        {
          "internalType": "bytes",
          "name": "_data",
          "type": "bytes"
        }
      ],
      "name": "safeTransferFrom",
      "outputs": [],
      "stateMutability": "nonpayable",
      "type": "function"
    },
    {
      "inputs": [
        {
          "internalType": "address",
          "name": "operator",
          "type": "address"
        },
        {
          "internalType": "bool",
          "name": "approved",
          "type": "bool"
        }
      ],
      "name": "setApprovalForAll",
      "outputs": [],
      "stateMutability": "nonpayable",
      "type": "function"
    },
    {
      "inputs": [
        {
          "internalType": "bytes4",
          "name": "interfaceId",
          "type": "bytes4"
        }
      ],
      "name": "supportsInterface",
      "outputs": [
        {
          "internalType": "bool",
          "name": "",
          "type": "bool"
        }
      ],
      "stateMutability": "view",
      "type": "function"
    },
    {
      "inputs": [],
      "name": "symbol",
      "outputs": [
        {
          "internalType": "string",
          "name": "",
          "type": "string"
        }
      ],
      "stateMutability": "view",
      "type": "function"
    },
    {
      "inputs": [
        {
          "internalType": "uint256",
          "name": "tokenId",
          "type": "uint256"
        }
      ],
      "name": "tokenURI",
      "outputs": [
        {
          "internalType": "string",
          "name": "",
          "type": "string"
        }
      ],
      "stateMutability": "view",
      "type": "function"
    },
    {
      "inputs": [
        {
          "internalType": "address",
          "name": "from",
          "type": "address"
        },
        {
          "internalType": "address",
          "name": "to",
          "type": "address"
        },
        {
          "internalType": "uint256",
          "name": "tokenId",
          "type": "uint256"
        }
      ],
      "name": "transferFrom",
      "outputs": [],
      "stateMutability": "nonpayable",
      "type": "function"
    },
    {
      "inputs": [
        {
          "internalType": "address",
          "name": "newOwner",
          "type": "address"
        }
      ],
      "name": "transferOwnership",
      "outputs": [],
      "stateMutability": "nonpayable",
      "type": "function"
    }
  ],
  "bytecode": "0x60806040523480156200001157600080fd5b506040518060400160405280600b81526020017f537564616b53756e7365740000000000000000000000000000000000000000008152506040518060400160405280600481526020017f5353756e00000000000000000000000000000000000000000000000000000000815250816000908051906020019062000096929190620001a6565b508060019080519060200190620000af929190620001a6565b505050620000d2620000c6620000d860201b60201c565b620000e060201b60201c565b620002bb565b600033905090565b6000600760009054906101000a900473ffffffffffffffffffffffffffffffffffffffff16905081600760006101000a81548173ffffffffffffffffffffffffffffffffffffffff021916908373ffffffffffffffffffffffffffffffffffffffff1602179055508173ffffffffffffffffffffffffffffffffffffffff168173ffffffffffffffffffffffffffffffffffffffff167f8be0079c531659141344cd1fd0a4f28419497f9722a3daafe3b4186f6b6457e060405160405180910390a35050565b828054620001b49062000256565b90600052602060002090601f016020900481019282620001d8576000855562000224565b82601f10620001f357805160ff191683800117855562000224565b8280016001018555821562000224579182015b828111156200022357825182559160200191906001019062000206565b5b50905062000233919062000237565b5090565b5b808211156200025257600081600090555060010162000238565b5090565b600060028204905060018216806200026f57607f821691505b602082108114156200028657620002856200028c565b5b50919050565b7f4e487b7100000000000000000000000000000000000000000000000000000000600052602260045260246000fd5b612fcf80620002cb6000396000f3fe608060405234801561001057600080fd5b506004361061010b5760003560e01c8063715018a6116100a2578063a561403311610071578063a5614033146102a4578063b88d4fde146102d4578063c87b56dd146102f0578063e985e9c514610320578063f2fde38b146103505761010b565b8063715018a6146102425780638da5cb5b1461024c57806395d89b411461026a578063a22cb465146102885761010b565b806323b872dd116100de57806323b872dd146101aa57806342842e0e146101c65780636352211e146101e257806370a08231146102125761010b565b806301ffc9a71461011057806306fdde0314610140578063081812fc1461015e578063095ea7b31461018e575b600080fd5b61012a60048036038101906101259190611f7e565b61036c565b60405161013791906123ca565b60405180910390f35b61014861044e565b60405161015591906123e5565b60405180910390f35b61017860048036038101906101739190611fd0565b6104e0565b6040516101859190612363565b60405180910390f35b6101a860048036038101906101a39190611f42565b610565565b005b6101c460048036038101906101bf9190611de8565b61067d565b005b6101e060048036038101906101db9190611de8565b6106dd565b005b6101fc60048036038101906101f79190611fd0565b6106fd565b6040516102099190612363565b60405180910390f35b61022c60048036038101906102279190611d83565b6107af565b6040516102399190612647565b60405180910390f35b61024a610867565b005b6102546108ef565b6040516102619190612363565b60405180910390f35b610272610919565b60405161027f91906123e5565b60405180910390f35b6102a2600480360381019061029d9190611eb2565b6109ab565b005b6102be60048036038101906102b99190611eee565b6109c1565b6040516102cb9190612647565b60405180910390f35b6102ee60048036038101906102e99190611e37565b610a75565b005b61030a60048036038101906103059190611fd0565b610ad7565b60405161031791906123e5565b60405180910390f35b61033a60048036038101906103359190611dac565b610ae9565b60405161034791906123ca565b60405180910390f35b61036a60048036038101906103659190611d83565b610b7d565b005b60007f80ac58cd000000000000000000000000000000000000000000000000000000007bffffffffffffffffffffffffffffffffffffffffffffffffffffffff1916827bffffffffffffffffffffffffffffffffffffffffffffffffffffffff1916148061043757507f5b5e139f000000000000000000000000000000000000000000000000000000007bffffffffffffffffffffffffffffffffffffffffffffffffffffffff1916827bffffffffffffffffffffffffffffffffffffffffffffffffffffffff1916145b80610447575061044682610c75565b5b9050919050565b60606000805461045d9061289d565b80601f01602080910402602001604051908101604052809291908181526020018280546104899061289d565b80156104d65780601f106104ab576101008083540402835291602001916104d6565b820191906000526020600020905b8154815290600101906020018083116104b957829003601f168201915b5050505050905090565b60006104eb82610cdf565b61052a576040517f08c379a000000000000000000000000000000000000000000000000000000000815260040161052190612587565b60405180910390fd5b6004600083815260200190815260200160002060009054906101000a900473ffffffffffffffffffffffffffffffffffffffff169050919050565b6000610570826106fd565b90508073ffffffffffffffffffffffffffffffffffffffff168373ffffffffffffffffffffffffffffffffffffffff1614156105e1576040517f08c379a00000000000000000000000000000000000000000000000000000000081526004016105d890612607565b60405180910390fd5b8073ffffffffffffffffffffffffffffffffffffffff16610600610d4b565b73ffffffffffffffffffffffffffffffffffffffff16148061062f575061062e81610629610d4b565b610ae9565b5b61066e576040517f08c379a0000000000000000000000000000000000000000000000000000000008152600401610665906124c7565b60405180910390fd5b6106788383610d53565b505050565b61068e610688610d4b565b82610e0c565b6106cd576040517f08c379a00000000000000000000000000000000000000000000000000000000081526004016106c490612627565b60405180910390fd5b6106d8838383610eea565b505050565b6106f883838360405180602001604052806000815250610a75565b505050565b6000806002600084815260200190815260200160002060009054906101000a900473ffffffffffffffffffffffffffffffffffffffff169050600073ffffffffffffffffffffffffffffffffffffffff168173ffffffffffffffffffffffffffffffffffffffff1614156107a6576040517f08c379a000000000000000000000000000000000000000000000000000000000815260040161079d90612507565b60405180910390fd5b80915050919050565b60008073ffffffffffffffffffffffffffffffffffffffff168273ffffffffffffffffffffffffffffffffffffffff161415610820576040517f08c379a0000000000000000000000000000000000000000000000000000000008152600401610817906124e7565b60405180910390fd5b600360008373ffffffffffffffffffffffffffffffffffffffff1673ffffffffffffffffffffffffffffffffffffffff168152602001908152602001600020549050919050565b61086f610d4b565b73ffffffffffffffffffffffffffffffffffffffff1661088d6108ef565b73ffffffffffffffffffffffffffffffffffffffff16146108e3576040517f08c379a00000000000000000000000000000000000000000000000000000000081526004016108da906125a7565b60405180910390fd5b6108ed6000611146565b565b6000600760009054906101000a900473ffffffffffffffffffffffffffffffffffffffff16905090565b6060600180546109289061289d565b80601f01602080910402602001604051908101604052809291908181526020018280546109549061289d565b80156109a15780601f10610976576101008083540402835291602001916109a1565b820191906000526020600020905b81548152906001019060200180831161098457829003601f168201915b5050505050905090565b6109bd6109b6610d4b565b838361120c565b5050565b60006109cb610d4b565b73ffffffffffffffffffffffffffffffffffffffff166109e96108ef565b73ffffffffffffffffffffffffffffffffffffffff1614610a3f576040517f08c379a0000000000000000000000000000000000000000000000000000000008152600401610a36906125a7565b60405180910390fd5b610a496008611379565b6000610a55600861138f565b9050610a61848261139d565b610a6b818461156b565b8091505092915050565b610a86610a80610d4b565b83610e0c565b610ac5576040517f08c379a0000000000000000000000000000000000000000000000000000000008152600401610abc90612627565b60405180910390fd5b610ad1848484846115df565b50505050565b6060610ae28261163b565b9050919050565b6000600560008473ffffffffffffffffffffffffffffffffffffffff1673ffffffffffffffffffffffffffffffffffffffff16815260200190815260200160002060008373ffffffffffffffffffffffffffffffffffffffff1673ffffffffffffffffffffffffffffffffffffffff16815260200190815260200160002060009054906101000a900460ff16905092915050565b610b85610d4b565b73ffffffffffffffffffffffffffffffffffffffff16610ba36108ef565b73ffffffffffffffffffffffffffffffffffffffff1614610bf9576040517f08c379a0000000000000000000000000000000000000000000000000000000008152600401610bf0906125a7565b60405180910390fd5b600073ffffffffffffffffffffffffffffffffffffffff168173ffffffffffffffffffffffffffffffffffffffff161415610c69576040517f08c379a0000000000000000000000000000000000000000000000000000000008152600401610c6090612427565b60405180910390fd5b610c7281611146565b50565b60007f01ffc9a7000000000000000000000000000000000000000000000000000000007bffffffffffffffffffffffffffffffffffffffffffffffffffffffff1916827bffffffffffffffffffffffffffffffffffffffffffffffffffffffff1916149050919050565b60008073ffffffffffffffffffffffffffffffffffffffff166002600084815260200190815260200160002060009054906101000a900473ffffffffffffffffffffffffffffffffffffffff1673ffffffffffffffffffffffffffffffffffffffff1614159050919050565b600033905090565b816004600083815260200190815260200160002060006101000a81548173ffffffffffffffffffffffffffffffffffffffff021916908373ffffffffffffffffffffffffffffffffffffffff160217905550808273ffffffffffffffffffffffffffffffffffffffff16610dc6836106fd565b73ffffffffffffffffffffffffffffffffffffffff167f8c5be1e5ebec7d5bd14f71427d1e84f3dd0314c0f7b2291e5b200ac8c7c3b92560405160405180910390a45050565b6000610e1782610cdf565b610e56576040517f08c379a0000000000000000000000000000000000000000000000000000000008152600401610e4d906124a7565b60405180910390fd5b6000610e61836106fd565b90508073ffffffffffffffffffffffffffffffffffffffff168473ffffffffffffffffffffffffffffffffffffffff161480610ed057508373ffffffffffffffffffffffffffffffffffffffff16610eb8846104e0565b73ffffffffffffffffffffffffffffffffffffffff16145b80610ee15750610ee08185610ae9565b5b91505092915050565b8273ffffffffffffffffffffffffffffffffffffffff16610f0a826106fd565b73ffffffffffffffffffffffffffffffffffffffff1614610f60576040517f08c379a0000000000000000000000000000000000000000000000000000000008152600401610f57906125c7565b60405180910390fd5b600073ffffffffffffffffffffffffffffffffffffffff168273ffffffffffffffffffffffffffffffffffffffff161415610fd0576040517f08c379a0000000000000000000000000000000000000000000000000000000008152600401610fc790612467565b60405180910390fd5b610fdb83838361178d565b610fe6600082610d53565b6001600360008573ffffffffffffffffffffffffffffffffffffffff1673ffffffffffffffffffffffffffffffffffffffff168152602001908152602001600020600082825461103691906127b3565b925050819055506001600360008473ffffffffffffffffffffffffffffffffffffffff1673ffffffffffffffffffffffffffffffffffffffff168152602001908152602001600020600082825461108d919061272c565b92505081905550816002600083815260200190815260200160002060006101000a81548173ffffffffffffffffffffffffffffffffffffffff021916908373ffffffffffffffffffffffffffffffffffffffff160217905550808273ffffffffffffffffffffffffffffffffffffffff168473ffffffffffffffffffffffffffffffffffffffff167fddf252ad1be2c89b69c2b068fc378daa952ba7f163c4a11628f55a4df523b3ef60405160405180910390a4505050565b6000600760009054906101000a900473ffffffffffffffffffffffffffffffffffffffff16905081600760006101000a81548173ffffffffffffffffffffffffffffffffffffffff021916908373ffffffffffffffffffffffffffffffffffffffff1602179055508173ffffffffffffffffffffffffffffffffffffffff168173ffffffffffffffffffffffffffffffffffffffff167f8be0079c531659141344cd1fd0a4f28419497f9722a3daafe3b4186f6b6457e060405160405180910390a35050565b8173ffffffffffffffffffffffffffffffffffffffff168373ffffffffffffffffffffffffffffffffffffffff16141561127b576040517f08c379a000000000000000000000000000000000000000000000000000000000815260040161127290612487565b60405180910390fd5b80600560008573ffffffffffffffffffffffffffffffffffffffff1673ffffffffffffffffffffffffffffffffffffffff16815260200190815260200160002060008473ffffffffffffffffffffffffffffffffffffffff1673ffffffffffffffffffffffffffffffffffffffff16815260200190815260200160002060006101000a81548160ff0219169083151502179055508173ffffffffffffffffffffffffffffffffffffffff168373ffffffffffffffffffffffffffffffffffffffff167f17307eab39ab6107e8899845ad3d59bd9653f200f220920489ca2b5937696c318360405161136c91906123ca565b60405180910390a3505050565b6001816000016000828254019250508190555050565b600081600001549050919050565b600073ffffffffffffffffffffffffffffffffffffffff168273ffffffffffffffffffffffffffffffffffffffff16141561140d576040517f08c379a000000000000000000000000000000000000000000000000000000000815260040161140490612547565b60405180910390fd5b61141681610cdf565b15611456576040517f08c379a000000000000000000000000000000000000000000000000000000000815260040161144d90612447565b60405180910390fd5b6114626000838361178d565b6001600360008473ffffffffffffffffffffffffffffffffffffffff1673ffffffffffffffffffffffffffffffffffffffff16815260200190815260200160002060008282546114b2919061272c565b92505081905550816002600083815260200190815260200160002060006101000a81548173ffffffffffffffffffffffffffffffffffffffff021916908373ffffffffffffffffffffffffffffffffffffffff160217905550808273ffffffffffffffffffffffffffffffffffffffff16600073ffffffffffffffffffffffffffffffffffffffff167fddf252ad1be2c89b69c2b068fc378daa952ba7f163c4a11628f55a4df523b3ef60405160405180910390a45050565b61157482610cdf565b6115b3576040517f08c379a00000000000000000000000000000000000000000000000000000000081526004016115aa90612527565b60405180910390fd5b806006600084815260200190815260200160002090805190602001906115da929190611ba7565b505050565b6115ea848484610eea565b6115f684848484611792565b611635576040517f08c379a000000000000000000000000000000000000000000000000000000000815260040161162c90612407565b60405180910390fd5b50505050565b606061164682610cdf565b611685576040517f08c379a000000000000000000000000000000000000000000000000000000000815260040161167c90612567565b60405180910390fd5b60006006600084815260200190815260200160002080546116a59061289d565b80601f01602080910402602001604051908101604052809291908181526020018280546116d19061289d565b801561171e5780601f106116f35761010080835404028352916020019161171e565b820191906000526020600020905b81548152906001019060200180831161170157829003601f168201915b50505050509050600061172f611929565b9050600081511415611745578192505050611788565b60008251111561177a57808260405160200161176292919061233f565b60405160208183030381529060405292505050611788565b61178384611940565b925050505b919050565b505050565b60006117b38473ffffffffffffffffffffffffffffffffffffffff166119e7565b1561191c578373ffffffffffffffffffffffffffffffffffffffff1663150b7a026117dc610d4b565b8786866040518563ffffffff1660e01b81526004016117fe949392919061237e565b602060405180830381600087803b15801561181857600080fd5b505af192505050801561184957506040513d601f19601f820116820180604052508101906118469190611fa7565b60015b6118cc573d8060008114611879576040519150601f19603f3d011682016040523d82523d6000602084013e61187e565b606091505b506000815114156118c4576040517f08c379a00000000000000000000000000000000000000000000000000000000081526004016118bb90612407565b60405180910390fd5b805181602001fd5b63150b7a0260e01b7bffffffffffffffffffffffffffffffffffffffffffffffffffffffff1916817bffffffffffffffffffffffffffffffffffffffffffffffffffffffff191614915050611921565b600190505b949350505050565b606060405180602001604052806000815250905090565b606061194b82610cdf565b61198a576040517f08c379a0000000000000000000000000000000000000000000000000000000008152600401611981906125e7565b60405180910390fd5b6000611994611929565b905060008151116119b457604051806020016040528060008152506119df565b806119be846119fa565b6040516020016119cf92919061233f565b6040516020818303038152906040525b915050919050565b600080823b905060008111915050919050565b60606000821415611a42576040518060400160405280600181526020017f30000000000000000000000000000000000000000000000000000000000000008152509050611ba2565b600082905060005b60008214611a74578080611a5d90612900565b915050600a82611a6d9190612782565b9150611a4a565b60008167ffffffffffffffff811115611ab6577f4e487b7100000000000000000000000000000000000000000000000000000000600052604160045260246000fd5b6040519080825280601f01601f191660200182016040528015611ae85781602001600182028036833780820191505090505b5090505b60008514611b9b57600182611b0191906127b3565b9150600a85611b109190612949565b6030611b1c919061272c565b60f81b818381518110611b58577f4e487b7100000000000000000000000000000000000000000000000000000000600052603260045260246000fd5b60200101907effffffffffffffffffffffffffffffffffffffffffffffffffffffffffffff1916908160001a905350600a85611b949190612782565b9450611aec565b8093505050505b919050565b828054611bb39061289d565b90600052602060002090601f016020900481019282611bd55760008555611c1c565b82601f10611bee57805160ff1916838001178555611c1c565b82800160010185558215611c1c579182015b82811115611c1b578251825591602001919060010190611c00565b5b509050611c299190611c2d565b5090565b5b80821115611c46576000816000905550600101611c2e565b5090565b6000611c5d611c5884612687565b612662565b905082815260208101848484011115611c7557600080fd5b611c8084828561285b565b509392505050565b6000611c9b611c96846126b8565b612662565b905082815260208101848484011115611cb357600080fd5b611cbe84828561285b565b509392505050565b600081359050611cd581612f3d565b92915050565b600081359050611cea81612f54565b92915050565b600081359050611cff81612f6b565b92915050565b600081519050611d1481612f6b565b92915050565b600082601f830112611d2b57600080fd5b8135611d3b848260208601611c4a565b91505092915050565b600082601f830112611d5557600080fd5b8135611d65848260208601611c88565b91505092915050565b600081359050611d7d81612f82565b92915050565b600060208284031215611d9557600080fd5b6000611da384828501611cc6565b91505092915050565b60008060408385031215611dbf57600080fd5b6000611dcd85828601611cc6565b9250506020611dde85828601611cc6565b9150509250929050565b600080600060608486031215611dfd57600080fd5b6000611e0b86828701611cc6565b9350506020611e1c86828701611cc6565b9250506040611e2d86828701611d6e565b9150509250925092565b60008060008060808587031215611e4d57600080fd5b6000611e5b87828801611cc6565b9450506020611e6c87828801611cc6565b9350506040611e7d87828801611d6e565b925050606085013567ffffffffffffffff811115611e9a57600080fd5b611ea687828801611d1a565b91505092959194509250565b60008060408385031215611ec557600080fd5b6000611ed385828601611cc6565b9250506020611ee485828601611cdb565b9150509250929050565b60008060408385031215611f0157600080fd5b6000611f0f85828601611cc6565b925050602083013567ffffffffffffffff811115611f2c57600080fd5b611f3885828601611d44565b9150509250929050565b60008060408385031215611f5557600080fd5b6000611f6385828601611cc6565b9250506020611f7485828601611d6e565b9150509250929050565b600060208284031215611f9057600080fd5b6000611f9e84828501611cf0565b91505092915050565b600060208284031215611fb957600080fd5b6000611fc784828501611d05565b91505092915050565b600060208284031215611fe257600080fd5b6000611ff084828501611d6e565b91505092915050565b612002816127e7565b82525050565b612011816127f9565b82525050565b6000612022826126e9565b61202c81856126ff565b935061203c81856020860161286a565b61204581612a36565b840191505092915050565b600061205b826126f4565b6120658185612710565b935061207581856020860161286a565b61207e81612a36565b840191505092915050565b6000612094826126f4565b61209e8185612721565b93506120ae81856020860161286a565b80840191505092915050565b60006120c7603283612710565b91506120d282612a47565b604082019050919050565b60006120ea602683612710565b91506120f582612a96565b604082019050919050565b600061210d601c83612710565b915061211882612ae5565b602082019050919050565b6000612130602483612710565b915061213b82612b0e565b604082019050919050565b6000612153601983612710565b915061215e82612b5d565b602082019050919050565b6000612176602c83612710565b915061218182612b86565b604082019050919050565b6000612199603883612710565b91506121a482612bd5565b604082019050919050565b60006121bc602a83612710565b91506121c782612c24565b604082019050919050565b60006121df602983612710565b91506121ea82612c73565b604082019050919050565b6000612202602e83612710565b915061220d82612cc2565b604082019050919050565b6000612225602083612710565b915061223082612d11565b602082019050919050565b6000612248603183612710565b915061225382612d3a565b604082019050919050565b600061226b602c83612710565b915061227682612d89565b604082019050919050565b600061228e602083612710565b915061229982612dd8565b602082019050919050565b60006122b1602983612710565b91506122bc82612e01565b604082019050919050565b60006122d4602f83612710565b91506122df82612e50565b604082019050919050565b60006122f7602183612710565b915061230282612e9f565b604082019050919050565b600061231a603183612710565b915061232582612eee565b604082019050919050565b61233981612851565b82525050565b600061234b8285612089565b91506123578284612089565b91508190509392505050565b60006020820190506123786000830184611ff9565b92915050565b60006080820190506123936000830187611ff9565b6123a06020830186611ff9565b6123ad6040830185612330565b81810360608301526123bf8184612017565b905095945050505050565b60006020820190506123df6000830184612008565b92915050565b600060208201905081810360008301526123ff8184612050565b905092915050565b60006020820190508181036000830152612420816120ba565b9050919050565b60006020820190508181036000830152612440816120dd565b9050919050565b6000602082019050818103600083015261246081612100565b9050919050565b6000602082019050818103600083015261248081612123565b9050919050565b600060208201905081810360008301526124a081612146565b9050919050565b600060208201905081810360008301526124c081612169565b9050919050565b600060208201905081810360008301526124e08161218c565b9050919050565b60006020820190508181036000830152612500816121af565b9050919050565b60006020820190508181036000830152612520816121d2565b9050919050565b60006020820190508181036000830152612540816121f5565b9050919050565b6000602082019050818103600083015261256081612218565b9050919050565b600060208201905081810360008301526125808161223b565b9050919050565b600060208201905081810360008301526125a08161225e565b9050919050565b600060208201905081810360008301526125c081612281565b9050919050565b600060208201905081810360008301526125e0816122a4565b9050919050565b60006020820190508181036000830152612600816122c7565b9050919050565b60006020820190508181036000830152612620816122ea565b9050919050565b600060208201905081810360008301526126408161230d565b9050919050565b600060208201905061265c6000830184612330565b92915050565b600061266c61267d565b905061267882826128cf565b919050565b6000604051905090565b600067ffffffffffffffff8211156126a2576126a1612a07565b5b6126ab82612a36565b9050602081019050919050565b600067ffffffffffffffff8211156126d3576126d2612a07565b5b6126dc82612a36565b9050602081019050919050565b600081519050919050565b600081519050919050565b600082825260208201905092915050565b600082825260208201905092915050565b600081905092915050565b600061273782612851565b915061274283612851565b9250827fffffffffffffffffffffffffffffffffffffffffffffffffffffffffffffffff038211156127775761277661297a565b5b828201905092915050565b600061278d82612851565b915061279883612851565b9250826127a8576127a76129a9565b5b828204905092915050565b60006127be82612851565b91506127c983612851565b9250828210156127dc576127db61297a565b5b828203905092915050565b60006127f282612831565b9050919050565b60008115159050919050565b60007fffffffff0000000000000000000000000000000000000000000000000000000082169050919050565b600073ffffffffffffffffffffffffffffffffffffffff82169050919050565b6000819050919050565b82818337600083830152505050565b60005b8381101561288857808201518184015260208101905061286d565b83811115612897576000848401525b50505050565b600060028204905060018216806128b557607f821691505b602082108114156128c9576128c86129d8565b5b50919050565b6128d882612a36565b810181811067ffffffffffffffff821117156128f7576128f6612a07565b5b80604052505050565b600061290b82612851565b91507fffffffffffffffffffffffffffffffffffffffffffffffffffffffffffffffff82141561293e5761293d61297a565b5b600182019050919050565b600061295482612851565b915061295f83612851565b92508261296f5761296e6129a9565b5b828206905092915050565b7f4e487b7100000000000000000000000000000000000000000000000000000000600052601160045260246000fd5b7f4e487b7100000000000000000000000000000000000000000000000000000000600052601260045260246000fd5b7f4e487b7100000000000000000000000000000000000000000000000000000000600052602260045260246000fd5b7f4e487b7100000000000000000000000000000000000000000000000000000000600052604160045260246000fd5b6000601f19601f8301169050919050565b7f4552433732313a207472616e7366657220746f206e6f6e20455243373231526560008201527f63656976657220696d706c656d656e7465720000000000000000000000000000602082015250565b7f4f776e61626c653a206e6577206f776e657220697320746865207a65726f206160008201527f6464726573730000000000000000000000000000000000000000000000000000602082015250565b7f4552433732313a20746f6b656e20616c7265616479206d696e74656400000000600082015250565b7f4552433732313a207472616e7366657220746f20746865207a65726f2061646460008201527f7265737300000000000000000000000000000000000000000000000000000000602082015250565b7f4552433732313a20617070726f766520746f2063616c6c657200000000000000600082015250565b7f4552433732313a206f70657261746f7220717565727920666f72206e6f6e657860008201527f697374656e7420746f6b656e0000000000000000000000000000000000000000602082015250565b7f4552433732313a20617070726f76652063616c6c6572206973206e6f74206f7760008201527f6e6572206e6f7220617070726f76656420666f7220616c6c0000000000000000602082015250565b7f4552433732313a2062616c616e636520717565727920666f7220746865207a6560008201527f726f206164647265737300000000000000000000000000000000000000000000602082015250565b7f4552433732313a206f776e657220717565727920666f72206e6f6e657869737460008201527f656e7420746f6b656e0000000000000000000000000000000000000000000000602082015250565b7f45524337323155524953746f726167653a2055524920736574206f66206e6f6e60008201527f6578697374656e7420746f6b656e000000000000000000000000000000000000602082015250565b7f4552433732313a206d696e7420746f20746865207a65726f2061646472657373600082015250565b7f45524337323155524953746f726167653a2055524920717565727920666f722060008201527f6e6f6e6578697374656e7420746f6b656e000000000000000000000000000000602082015250565b7f4552433732313a20617070726f76656420717565727920666f72206e6f6e657860008201527f697374656e7420746f6b656e0000000000000000000000000000000000000000602082015250565b7f4f776e61626c653a2063616c6c6572206973206e6f7420746865206f776e6572600082015250565b7f4552433732313a207472616e73666572206f6620746f6b656e2074686174206960008201527f73206e6f74206f776e0000000000000000000000000000000000000000000000602082015250565b7f4552433732314d657461646174613a2055524920717565727920666f72206e6f60008201527f6e6578697374656e7420746f6b656e0000000000000000000000000000000000602082015250565b7f4552433732313a20617070726f76616c20746f2063757272656e74206f776e6560008201527f7200000000000000000000000000000000000000000000000000000000000000602082015250565b7f4552433732313a207472616e736665722063616c6c6572206973206e6f74206f60008201527f776e6572206e6f7220617070726f766564000000000000000000000000000000602082015250565b612f46816127e7565b8114612f5157600080fd5b50565b612f5d816127f9565b8114612f6857600080fd5b50565b612f7481612805565b8114612f7f57600080fd5b50565b612f8b81612851565b8114612f9657600080fd5b5056fea26469706673582212207bf4e4a39eded8167324901cf038fd42be5c7d343e1d57eabf9f60250be45deb64736f6c63430008020033",
  "linkReferences": {},
  "deployedLinkReferences": {}
}